{
  "contractName": "Predict",
  "abi": [
    {
      "constant": true,
      "inputs": [],
      "name": "tron",
      "outputs": [
        {
          "name": "",
          "type": "uint256"
        }
      ],
      "payable": false,
      "stateMutability": "view",
      "type": "function"
    },
    {
      "inputs": [],
      "payable": false,
      "stateMutability": "nonpayable",
      "type": "constructor"
    },
    {
      "anonymous": false,
      "inputs": [
        {
          "indexed": false,
          "name": "userid",
          "type": "uint256"
        }
      ],
      "name": "createUserSuccess",
      "type": "event"
    },
    {
      "anonymous": false,
      "inputs": [
        {
          "indexed": false,
          "name": "score",
          "type": "uint256"
        }
      ],
      "name": "predictSuccess",
      "type": "event"
    },
    {
      "anonymous": false,
      "inputs": [
        {
          "indexed": false,
          "name": "typeid",
          "type": "uint256"
        }
      ],
      "name": "ErrorInput",
      "type": "event"
    },
    {
      "anonymous": false,
      "inputs": [
        {
          "indexed": false,
          "name": "money",
          "type": "uint256"
        }
      ],
      "name": "DonateSuccess",
      "type": "event"
    },
    {
      "anonymous": false,
      "inputs": [
        {
          "indexed": false,
          "name": "money",
          "type": "uint256"
        }
      ],
      "name": "HelpSuccess",
      "type": "event"
    },
    {
      "anonymous": false,
      "inputs": [
        {
          "indexed": false,
          "name": "money",
          "type": "uint256"
        }
      ],
      "name": "TransferSuccess",
      "type": "event"
    },
    {
      "constant": true,
      "inputs": [],
      "name": "checkUser",
      "outputs": [
        {
          "name": "",
          "type": "bool"
        }
      ],
      "payable": false,
      "stateMutability": "view",
      "type": "function"
    },
    {
      "constant": true,
      "inputs": [
        {
          "name": "_type",
          "type": "uint256"
        }
      ],
      "name": "predict",
      "outputs": [
        {
          "name": "",
          "type": "uint256"
        }
      ],
      "payable": false,
      "stateMutability": "view",
      "type": "function"
    },
    {
      "constant": false,
      "inputs": [
        {
          "name": "_type",
          "type": "uint256"
        }
      ],
      "name": "predictType",
      "outputs": [],
      "payable": false,
      "stateMutability": "nonpayable",
      "type": "function"
    },
    {
      "constant": false,
      "inputs": [
        {
          "name": "_name",
          "type": "string"
        },
        {
          "name": "_sex",
          "type": "uint256"
        },
        {
          "name": "_birthday",
          "type": "uint256"
        },
        {
          "name": "_luckynumber",
          "type": "uint256"
        },
        {
          "name": "_type",
          "type": "uint256"
        }
      ],
      "name": "predictFirst",
      "outputs": [],
      "payable": false,
      "stateMutability": "nonpayable",
      "type": "function"
    },
    {
      "constant": false,
      "inputs": [
        {
          "name": "_money",
          "type": "uint256"
        }
      ],
      "name": "donate",
      "outputs": [],
      "payable": true,
      "stateMutability": "payable",
      "type": "function"
    },
    {
      "constant": false,
      "inputs": [
        {
          "name": "_type",
          "type": "uint256"
        }
      ],
      "name": "help",
      "outputs": [],
      "payable": true,
      "stateMutability": "payable",
      "type": "function"
    },
    {
      "constant": false,
      "inputs": [
        {
          "name": "_target",
          "type": "address"
        },
        {
          "name": "_money",
          "type": "uint256"
        }
      ],
      "name": "tansferTo",
      "outputs": [],
      "payable": true,
      "stateMutability": "payable",
      "type": "function"
    },
    {
      "constant": true,
      "inputs": [],
      "name": "getUser",
      "outputs": [
        {
          "name": "",
          "type": "uint256"
        },
        {
          "name": "",
          "type": "string"
        },
        {
          "name": "",
          "type": "uint256"
        },
        {
          "name": "",
          "type": "uint256"
        },
        {
          "name": "",
          "type": "uint256"
        },
        {
          "name": "",
          "type": "uint256"
        },
        {
          "name": "",
          "type": "uint256"
        },
        {
          "name": "",
          "type": "uint256"
        }
      ],
      "payable": false,
      "stateMutability": "view",
      "type": "function"
    },
    {
      "constant": true,
      "inputs": [],
      "name": "getUserkey",
      "outputs": [
        {
          "name": "",
          "type": "uint256"
        }
      ],
      "payable": false,
      "stateMutability": "view",
      "type": "function"
    },
    {
      "constant": true,
      "inputs": [],
      "name": "getLovekey",
      "outputs": [
        {
          "name": "",
          "type": "uint256"
        }
      ],
      "payable": false,
      "stateMutability": "view",
      "type": "function"
    },
    {
      "constant": true,
      "inputs": [
        {
          "name": "_key",
          "type": "uint256"
        }
      ],
      "name": "getLove",
      "outputs": [
        {
          "name": "",
          "type": "address"
        }
      ],
      "payable": false,
      "stateMutability": "view",
      "type": "function"
    },
    {
      "constant": true,
      "inputs": [],
      "name": "getCareerkey",
      "outputs": [
        {
          "name": "",
          "type": "uint256"
        }
      ],
      "payable": false,
      "stateMutability": "view",
      "type": "function"
    },
    {
      "constant": true,
      "inputs": [
        {
          "name": "_key",
          "type": "uint256"
        }
      ],
      "name": "getCareer",
      "outputs": [
        {
          "name": "",
          "type": "address"
        }
      ],
      "payable": false,
      "stateMutability": "view",
      "type": "function"
    },
    {
      "constant": true,
      "inputs": [],
      "name": "getMoneykey",
      "outputs": [
        {
          "name": "",
          "type": "uint256"
        }
      ],
      "payable": false,
      "stateMutability": "view",
      "type": "function"
    },
    {
      "constant": true,
      "inputs": [
        {
          "name": "_key",
          "type": "uint256"
        }
      ],
      "name": "getMoney",
      "outputs": [
        {
          "name": "",
          "type": "address"
        }
      ],
      "payable": false,
      "stateMutability": "view",
      "type": "function"
    },
    {
      "constant": true,
      "inputs": [],
      "name": "getDonate",
      "outputs": [
        {
          "name": "",
          "type": "uint256"
        }
      ],
      "payable": false,
      "stateMutability": "view",
      "type": "function"
    },
    {
      "constant": true,
      "inputs": [],
      "name": "getHelp",
      "outputs": [
        {
          "name": "",
          "type": "uint256"
        }
      ],
      "payable": false,
      "stateMutability": "view",
      "type": "function"
    },
    {
      "constant": true,
      "inputs": [],
      "name": "getBalance",
      "outputs": [
        {
          "name": "",
          "type": "uint256"
        }
      ],
      "payable": false,
      "stateMutability": "view",
      "type": "function"
    }
  ],
  "bytecode": "0x608060405260016000556001805560016002556001600355600060045560006005556000600655620f4240600755600560085534801561003e57600080fd5b5033600960006101000a81548173ffffffffffffffffffffffffffffffffffffffff021916908373ffffffffffffffffffffffffffffffffffffffff1602179055506119a18061008f6000396000f300608060405260043610610107576000357c0100000000000000000000000000000000000000000000000000000000900463ffffffff168063108e7c731461010c57806312065fe0146101375780631a9adea2146101625780633262fd9a1461018d5780634732b8fa146101fa57806352ef348a146102255780635db2f1421461026657806366048f89146102d35780636693117d14610300578063832880e71461032b57806383a07b6d146103ec5780639ec3c8e91461047d578063c1562547146104a8578063cb5dd855146104d7578063e3ec291a146104f7578063eec9260514610522578063f0510aa91461058f578063f14faf6f146105ba578063fe4fbcc9146105da575b600080fd5b34801561011857600080fd5b5061012161061a565b6040518082815260200191505060405180910390f35b34801561014357600080fd5b5061014c610624565b6040518082815260200191505060405180910390f35b34801561016e57600080fd5b5061017761068a565b6040518082815260200191505060405180910390f35b34801561019957600080fd5b506101b860048036038101908080359060200190929190505050610693565b604051808273ffffffffffffffffffffffffffffffffffffffff1673ffffffffffffffffffffffffffffffffffffffff16815260200191505060405180910390f35b34801561020657600080fd5b5061020f6106d0565b6040518082815260200191505060405180910390f35b34801561023157600080fd5b50610250600480360381019080803590602001909291905050506106da565b6040518082815260200191505060405180910390f35b34801561027257600080fd5b5061029160048036038101908080359060200190929190505050610777565b604051808273ffffffffffffffffffffffffffffffffffffffff1673ffffffffffffffffffffffffffffffffffffffff16815260200191505060405180910390f35b3480156102df57600080fd5b506102fe600480360381019080803590602001909291905050506107b4565b005b34801561030c57600080fd5b506103156109a5565b6040518082815260200191505060405180910390f35b34801561033757600080fd5b506103406109ab565b6040518089815260200180602001888152602001878152602001868152602001858152602001848152602001838152602001828103825289818151815260200191508051906020019080838360005b838110156103aa57808201518184015260208101905061038f565b50505050905090810190601f1680156103d75780820380516001836020036101000a031916815260200191505b50995050505050505050505060405180910390f35b3480156103f857600080fd5b5061047b600480360381019080803590602001908201803590602001908080601f016020809104026020016040519081016040528093929190818152602001838380828437820191505050505050919291929080359060200190929190803590602001909291908035906020019092919080359060200190929190505050610b3c565b005b34801561048957600080fd5b50610492610cd8565b6040518082815260200191505060405180910390f35b3480156104b457600080fd5b506104bd610ce2565b604051808215151515815260200191505060405180910390f35b6104f560048036038101908080359060200190929190505050610e41565b005b34801561050357600080fd5b5061050c610eaf565b6040518082815260200191505060405180910390f35b34801561052e57600080fd5b5061054d60048036038101908080359060200190929190505050610eb9565b604051808273ffffffffffffffffffffffffffffffffffffffff1673ffffffffffffffffffffffffffffffffffffffff16815260200191505060405180910390f35b34801561059b57600080fd5b506105a4610ef6565b6040518082815260200191505060405180910390f35b6105d860048036038101908080359060200190929190505050610f00565b005b610618600480360381019080803573ffffffffffffffffffffffffffffffffffffffff16906020019092919080359060200190929190505050610f5e565b005b6000600154905090565b6000600960009054906101000a900473ffffffffffffffffffffffffffffffffffffffff1673ffffffffffffffffffffffffffffffffffffffff163373ffffffffffffffffffffffffffffffffffffffff1614151561068257600080fd5b600454905090565b60008054905090565b6000600d600083815260200190815260200160002060009054906101000a900473ffffffffffffffffffffffffffffffffffffffff169050919050565b6000600554905090565b6000806106e5610ce2565b15156106f057600080fd5b600a60003373ffffffffffffffffffffffffffffffffffffffff1673ffffffffffffffffffffffffffffffffffffffff168152602001908152602001600020905060018314156107465780600501549150610771565b600283141561075b5780600601549150610771565b60038314156107705780600701549150610771565b5b50919050565b6000600b600083815260200190815260200160002060009054906101000a900473ffffffffffffffffffffffffffffffffffffffff169050919050565b6000806107bf610ce2565b15156107ca57600080fd5b60006107d5846106da565b1415156107e157600080fd5b600a60003373ffffffffffffffffffffffffffffffffffffffff1673ffffffffffffffffffffffffffffffffffffffff16815260200190815260200160002091506001606460028460020154856003015486600401544233604051602001808681526020018581526020018481526020018381526020018273ffffffffffffffffffffffffffffffffffffffff1673ffffffffffffffffffffffffffffffffffffffff166c01000000000000000000000000028152601401955050505050506040516020818303038152906040526040518082805190602001908083835b6020831015156108e457805182526020820191506020810190506020830392506108bf565b6001836020036101000a0380198251168184511680821785525050505050509050019150506020604051808303816000865af1158015610928573d6000803e3d6000fd5b5050506040513d602081101561093d57600080fd5b81019080805190602001909291905050506001900481151561095b57fe5b06019050610969818461104f565b7fbf3374915d415c396d0673f3796341eef197bbfb6b37534d947fb801e35c34bb816040518082815260200191505060405180910390a1505050565b60075481565b600060606000806000806000806109c0611803565b600a60003373ffffffffffffffffffffffffffffffffffffffff1673ffffffffffffffffffffffffffffffffffffffff168152602001908152602001600020610100604051908101604052908160008201548152602001600182018054600181600116156101000203166002900480601f016020809104026020016040519081016040528092919081815260200182805460018160011615610100020316600290048015610aaf5780601f10610a8457610100808354040283529160200191610aaf565b820191906000526020600020905b815481529060010190602001808311610a9257829003601f168201915b5050505050815260200160028201548152602001600382015481526020016004820154815260200160058201548152602001600682015481526020016007820154815250509050806000015181602001518260400151836060015184608001518560a001518660c001518760e0015186965098509850985098509850985098509850509091929394959697565b6000610b46610ce2565b151515610b5257600080fd5b610b5e8686868661108c565b6001606460028787874233604051602001808681526020018581526020018481526020018381526020018273ffffffffffffffffffffffffffffffffffffffff1673ffffffffffffffffffffffffffffffffffffffff166c01000000000000000000000000028152601401955050505050506040516020818303038152906040526040518082805190602001908083835b602083101515610c145780518252602082019150602081019050602083039250610bef565b6001836020036101000a0380198251168184511680821785525050505050509050019150506020604051808303816000865af1158015610c58573d6000803e3d6000fd5b5050506040513d6020811015610c6d57600080fd5b810190808051906020019092919050505060019004811515610c8b57fe5b06019050610c99818361104f565b7fbf3374915d415c396d0673f3796341eef197bbfb6b37534d947fb801e35c34bb816040518082815260200191505060405180910390a1505050505050565b6000600654905090565b6000610cec611803565b600a60003373ffffffffffffffffffffffffffffffffffffffff1673ffffffffffffffffffffffffffffffffffffffff168152602001908152602001600020610100604051908101604052908160008201548152602001600182018054600181600116156101000203166002900480601f016020809104026020016040519081016040528092919081815260200182805460018160011615610100020316600290048015610ddb5780601f10610db057610100808354040283529160200191610ddb565b820191906000526020600020905b815481529060010190602001808311610dbe57829003601f168201915b5050505050815260200160028201548152602001600382015481526020016004820154815260200160058201548152602001600682015481526020016007820154815250509050600081600001511115610e385760019150610e3d565b600091505b5090565b600754600854023410151515610e5657600080fd5b610e5f816111d0565b610e683461135d565b7f835adf73b42c5e4038fd0617ef13372ffde5f56838e1adc911dbb6a53fdcdd6660075434811515610e9657fe5b046040518082815260200191505060405180910390a150565b6000600254905090565b6000600c600083815260200190815260200160002060009054906101000a900473ffffffffffffffffffffffffffffffffffffffff169050919050565b6000600354905090565b60075481023410151515610f1357600080fd5b610f1b61136b565b610f243461135d565b7f177106ef8fb54cbe1cfdd361802a4d15b05cc6bf11be4c1448dfa6f4504f817b816040518082815260200191505060405180910390a150565b600960009054906101000a900473ffffffffffffffffffffffffffffffffffffffff1673ffffffffffffffffffffffffffffffffffffffff163373ffffffffffffffffffffffffffffffffffffffff16141515610fba57600080fd5b8173ffffffffffffffffffffffffffffffffffffffff166108fc60075483029081150290604051600060405180830381858888f19350505050158015611004573d6000803e3d6000fd5b506007548102600454036004819055507f2df64750ce2bd8827c692897aabfb4c8705f7c750f10c215787d09329ac615b5816040518082815260200191505060405180910390a15050565b6001811415611062576110618261137f565b5b600281141561107557611074826114e6565b5b6003811415611088576110878261164d565b5b5050565b600080611097611803565b61109f61068a565b9250600091506101006040519081016040528084815260200188815260200187815260200186815260200185815260200183815260200183815260200183815250905080600a60003373ffffffffffffffffffffffffffffffffffffffff1673ffffffffffffffffffffffffffffffffffffffff168152602001908152602001600020600082015181600001556020820151816001019080519060200190611148929190611849565b5060408201518160020155606082015181600301556080820151816004015560a0820151816005015560c0820151816006015560e082015181600701559050506111906117b4565b7f4762b05eeefbf457fe750c0ec35c1235c95b22769cfbd4827b87d1ecfab14cb4836040518082815260200191505060405180910390a150505050505050565b6000600560008154809291906001019190505550600a600f60024233604051602001808381526020018273ffffffffffffffffffffffffffffffffffffffff1673ffffffffffffffffffffffffffffffffffffffff166c01000000000000000000000000028152601401925050506040516020818303038152906040526040518082805190602001908083835b602083101515611282578051825260208201915060208101905060208303925061125d565b6001836020036101000a0380198251168184511680821785525050505050509050019150506020604051808303816000865af11580156112c6573d6000803e3d6000fd5b5050506040513d60208110156112db57600080fd5b8101908080519060200190929190505050600190048115156112f957fe5b0601905080611307836106da565b019050606481111561131857606490505b611322818361104f565b7fbf3374915d415c396d0673f3796341eef197bbfb6b37534d947fb801e35c34bb816040518082815260200191505060405180910390a15050565b806004540160048190555050565b600660008154809291906001019190505550565b600080600a60003373ffffffffffffffffffffffffffffffffffffffff1673ffffffffffffffffffffffffffffffffffffffff16815260200190815260200160002091506113cb61061a565b905033600b600083815260200190815260200160002060006101000a81548173ffffffffffffffffffffffffffffffffffffffff021916908373ffffffffffffffffffffffffffffffffffffffff1602179055506114276117c7565b82826005018190555081600a60003373ffffffffffffffffffffffffffffffffffffffff1673ffffffffffffffffffffffffffffffffffffffff16815260200190815260200160002060008201548160000155600182018160010190805460018160011615610100020316600290046114a19291906118c9565b50600282015481600201556003820154816003015560048201548160040155600582015481600501556006820154816006015560078201548160070155905050505050565b600080600a60003373ffffffffffffffffffffffffffffffffffffffff1673ffffffffffffffffffffffffffffffffffffffff1681526020019081526020016000209150611532610eaf565b905033600c600083815260200190815260200160002060006101000a81548173ffffffffffffffffffffffffffffffffffffffff021916908373ffffffffffffffffffffffffffffffffffffffff16021790555061158e6117db565b82826006018190555081600a60003373ffffffffffffffffffffffffffffffffffffffff1673ffffffffffffffffffffffffffffffffffffffff16815260200190815260200160002060008201548160000155600182018160010190805460018160011615610100020316600290046116089291906118c9565b50600282015481600201556003820154816003015560048201548160040155600582015481600501556006820154816006015560078201548160070155905050505050565b600080600a60003373ffffffffffffffffffffffffffffffffffffffff1673ffffffffffffffffffffffffffffffffffffffff1681526020019081526020016000209150611699610ef6565b905033600d600083815260200190815260200160002060006101000a81548173ffffffffffffffffffffffffffffffffffffffff021916908373ffffffffffffffffffffffffffffffffffffffff1602179055506116f56117ef565b82826007018190555081600a60003373ffffffffffffffffffffffffffffffffffffffff1673ffffffffffffffffffffffffffffffffffffffff168152602001908152602001600020600082015481600001556001820181600101908054600181600116156101000203166002900461176f9291906118c9565b50600282015481600201556003820154816003015560048201548160040155600582015481600501556006820154816006015560078201548160070155905050505050565b6000808154809291906001019190505550565b600160008154809291906001019190505550565b600260008154809291906001019190505550565b600360008154809291906001019190505550565b6101006040519081016040528060008152602001606081526020016000815260200160008152602001600081526020016000815260200160008152602001600081525090565b828054600181600116156101000203166002900490600052602060002090601f016020900481019282601f1061188a57805160ff19168380011785556118b8565b828001600101855582156118b8579182015b828111156118b757825182559160200191906001019061189c565b5b5090506118c59190611950565b5090565b828054600181600116156101000203166002900490600052602060002090601f016020900481019282601f10611902578054855561193f565b8280016001018555821561193f57600052602060002091601f016020900482015b8281111561193e578254825591600101919060010190611923565b5b50905061194c9190611950565b5090565b61197291905b8082111561196e576000816000905550600101611956565b5090565b905600a165627a7a72305820916da67b27f5dd75b7489c38f422b2450c5c308882525c98f211d318aaa0dffb0029",
  "source": "pragma solidity ^0.4.18;\n\n\ncontract Predict {\n\n    struct User {\n        uint256 userid;\n        string name;\n        uint256 sex;\n        uint256 birthday;\n        uint256 luckynumber;\n        uint256 type_love;\n        uint256 type_career;\n        uint256 type_money;\n    }\n/*\n    struct Record {\n        uint256 id;\n        uint256 score;\n        address owner;\n    }\n    */\n\n    uint256 private userkey = 1;\n    uint256 private lovekey = 1;\n    uint256 private careerkey = 1;\n    uint256 private moneykey = 1;\n    uint256 private balance = 0;\n    uint256 private count_help = 0;\n    uint256 private count_donate = 0;\n    uint256 public tron = 1000000;\n    //uint256 tron = 1000000000000000000; \n    uint256 private help_fee = 5;\n    address private owneraddress;\n\n    mapping (address => User) private users;\n    mapping (uint256 => address) private record_love;\n    mapping (uint256 => address) private record_career;\n    mapping (uint256 => address) private record_money;\n\n    event createUserSuccess(uint256 userid);\n    event predictSuccess(uint256 score);\n    event ErrorInput(uint256 typeid);\n    event DonateSuccess(uint256 money);\n    event HelpSuccess(uint256 money);\n    event TransferSuccess(uint256 money);\n\n    constructor () public {\n        owneraddress = msg.sender;        \n    }\n\n    modifier onlyOwner () {\n        require(msg.sender == owneraddress);\n        _;\n    }\n\n    function checkUser() public view returns(bool) {\n        User memory user = users[msg.sender];\n        if(user.userid > 0){\n            return true;\n        }\n        return false;\n    }\n\n    function createUser (string _name,uint256 _sex, uint256 _birthday, uint256 _luckynumber) private {\n        uint256 _userid = getUserkey();\n        uint256 _score = 0;\n        User memory user = User({userid:_userid, name:_name, sex:_sex, birthday:_birthday, luckynumber:_luckynumber,type_love:_score, type_career:_score, type_money:_score});\n        users[msg.sender] = user;\n        updateUserkey();\n        emit createUserSuccess(_userid);\n    }\n\n    function updateTypelove (uint256 _score) private {\n        User storage user = users[msg.sender];\n        //Record memory record = Record({id:recordid,score:_score,owner:msg.sender});\n        uint256 recordid = getLovekey();\n        record_love[recordid] = msg.sender;\n        updateLovekey();\n        //uint256[] storage type_init = user.type_love;\n        //type_init.push(recordid);\n        user.type_love = _score;\n        users[msg.sender] = user;\n    }\n\n    function updateTypecareer (uint256 _score) private {\n        User storage user = users[msg.sender];\n        //Record memory record = Record({id:recordid,score:_score,owner:msg.sender});\n        uint256 recordid = getCareerkey();\n        record_career[recordid] = msg.sender;\n        updateCareerkey();\n        //uint256[] storage type_init = user.type_career;\n        //type_init.push(recordid);\n        user.type_career = _score;\n        users[msg.sender] = user;\n    }\n\n    function updateTypemoney (uint256 _score) private {\n        User storage user = users[msg.sender];\n        //Record memory record = Record({id:recordid,score:_score,owner:msg.sender});\n        uint256 recordid = getMoneykey();\n        record_money[recordid] = msg.sender;\n        updateMoneykey();\n        //uint256[] storage type_init = user.type_money;\n        //type_init.push(recordid);\n        user.type_money = _score;\n        users[msg.sender] = user;\n    }\n\n    function updateType (uint256 _score, uint256 _type) private {\n        if(_type == 1) {\n            updateTypelove(_score);\n        } \n        if (_type == 2) {\n            updateTypecareer(_score);\n        } \n        if (_type == 3) {\n            updateTypemoney(_score);\n        } \n    }\n/*\n    function predictForothers (uint256 _sex, uint256 _birthday, uint256 _luckynumber, uint256 _type) public {\n        uint256 score = uint256(sha256(abi.encodePacked(_sex, _birthday, _luckynumber, _type, now, msg.sender))) % 100 + 1;\n        emit predictSuccess(score);\n    }\n*/\n\n    function predict (uint256 _type) public view returns(uint256) {\n        require(checkUser());\n        User storage user = users[msg.sender];\n        //uint256 score = uint256(sha256(abi.encodePacked(user.sex, user.birthday, user.luckynumber, now, msg.sender))) % 100 + 1;\n        if(_type == 1) {\n            return(user.type_love);\n        } \n        if (_type == 2) {\n            return(user.type_career);\n        } \n        if (_type == 3) {\n            return(user.type_money);\n        } \n        /*\n        uint256 score = uint256(sha256(abi.encodePacked(user.sex, user.birthday, user.luckynumber, now, msg.sender))) % 100 + 1;\n        updateType(score, _type);\n        emit predictSuccess(score);\n        */\n    }\n    function predictType (uint256 _type) public {\n        require(checkUser());\n        require(predict(_type) == 0);\n        User storage user = users[msg.sender];\n        uint256 score = uint256(sha256(abi.encodePacked(user.sex, user.birthday, user.luckynumber, now, msg.sender))) % 100 + 1;\n        updateType(score, _type);\n        emit predictSuccess(score);\n    }\n\n    function predictFirst (string _name, uint256 _sex, uint256 _birthday, uint256 _luckynumber, uint256 _type) public {\n        require(!checkUser());\n        createUser(_name, _sex, _birthday, _luckynumber);\n        uint256 score = uint256(sha256(abi.encodePacked(_sex, _birthday, _luckynumber, now, msg.sender))) % 100 + 1;\n        updateType(score,_type);\n        emit predictSuccess(score);\n    }\n\n    function donate (uint256 _money) public payable {\n        require(msg.value >= _money * tron);\n        updateDonate();\n        updateBalance(msg.value);\n        emit DonateSuccess(_money);\n    }\n\n    function help (uint256 _type) public payable {\n        require(msg.value >= help_fee * tron);\n        updateHelp(_type);\n        updateBalance(msg.value);\n        emit HelpSuccess(msg.value / tron);\n    }\n\n    function tansferTo (address _target , uint256 _money) public payable onlyOwner {\n        _target.transfer(_money * tron);\n        balance = balance - _money * tron;\n        emit TransferSuccess(_money);\n    }\n/*\n    function getRecord (uint256 _type, uint256 _id) public view returns (uint256, uint256, address) {\n        //Record memory record;\n        if(_type == 1){\n            record = record_love[_id];\n        } else if (_type == 2) {\n            record = record_career[_id];\n        } else if (_type == 3) {\n            record = record_money[_id];\n        } \n        return(record.id, record.score, record.owner);\n    }\n    */\n\n    function getUser () public view returns(uint256, string, uint256, uint256, uint256, uint256, uint256, uint256) {\n        User memory user = users[msg.sender];\n        return(user.userid, user.name, user.sex, user.birthday, user.luckynumber, user.type_love, user.type_career, user.type_money);\n    }\n\n    function getUserkey () public view returns(uint256) {\n        return userkey;\n    }\n\n    function updateUserkey () private {\n        userkey++;\n    }\n\n    function getLovekey () public view returns(uint256) {\n        return lovekey;\n    }\n\n    function getLove (uint256 _key) public view returns(address) {\n        return record_love[_key];\n    }\n\n    function updateLovekey () private {\n        lovekey++;\n    }\n\n    function getCareerkey () public view returns(uint256) {\n        return careerkey;\n    }\n\n    function getCareer (uint256 _key) public view returns(address) {\n        return record_career[_key];\n    }\n\n    function updateCareerkey () private {\n        careerkey++;\n    }\n\n    function getMoneykey () public view returns(uint256) {\n        return moneykey;\n    }\n\n    function getMoney (uint256 _key) public view returns(address) {\n        return record_money[_key];\n    }\n\n    function updateMoneykey () private {\n        moneykey++;\n    }\n\n    function getDonate () public view returns(uint256) {\n        return count_donate;\n    }\n\n    function updateDonate () private {\n        count_donate++;\n    }\n\n    function getHelp () public view returns(uint256) {\n        return count_help;\n    }\n\n    function updateHelp (uint256 _type) private {\n        count_help++;\n        uint256 score = uint256(sha256(abi.encodePacked(now, msg.sender))) % 15 + 10;\n        score = predict(_type) + score;\n        if(score > 100) {\n            score = 100;\n        }\n        updateType(score, _type);\n        emit predictSuccess(score);\n    }\n\n    function getBalance () public view onlyOwner returns(uint256) {\n        return balance;\n    }\n\n    function updateBalance (uint256 _money) private {\n        balance = balance + _money;\n    }\n}",
  "sourcePath": "/home/hht/work/code/Tron/contracts/Predict.sol",
  "compiler": {
    "name": "solc",
    "version": "0.4.24-develop.2018.8.28+commit.3ba0cdec.mod.Emscripten.clang"
  },
  "schemaVersion": "2.0.1",
  "updatedAt": "2019-01-08T02:15:18.598Z"
}