{
  "contractName": "Predict",
  "abi": [
    {
      "constant": true,
      "inputs": [],
      "name": "tron",
      "outputs": [
        {
          "name": "",
          "type": "uint256"
        }
      ],
      "payable": false,
      "stateMutability": "view",
      "type": "function"
    },
    {
      "inputs": [],
      "payable": false,
      "stateMutability": "nonpayable",
      "type": "constructor"
    },
    {
      "anonymous": false,
      "inputs": [
        {
          "indexed": false,
          "name": "userid",
          "type": "uint256"
        }
      ],
      "name": "createUserSuccess",
      "type": "event"
    },
    {
      "anonymous": false,
      "inputs": [
        {
          "indexed": false,
          "name": "score",
          "type": "uint256"
        }
      ],
      "name": "predictSuccess",
      "type": "event"
    },
    {
      "anonymous": false,
      "inputs": [
        {
          "indexed": false,
          "name": "typeid",
          "type": "uint256"
        }
      ],
      "name": "ErrorInput",
      "type": "event"
    },
    {
      "anonymous": false,
      "inputs": [
        {
          "indexed": false,
          "name": "money",
          "type": "uint256"
        }
      ],
      "name": "DonateSuccess",
      "type": "event"
    },
    {
      "anonymous": false,
      "inputs": [
        {
          "indexed": false,
          "name": "money",
          "type": "uint256"
        }
      ],
      "name": "HelpSuccess",
      "type": "event"
    },
    {
      "anonymous": false,
      "inputs": [
        {
          "indexed": false,
          "name": "money",
          "type": "uint256"
        }
      ],
      "name": "TransferSuccess",
      "type": "event"
    },
    {
      "constant": true,
      "inputs": [],
      "name": "checkUser",
      "outputs": [
        {
          "name": "",
          "type": "bool"
        }
      ],
      "payable": false,
      "stateMutability": "view",
      "type": "function"
    },
    {
      "constant": false,
      "inputs": [
        {
          "name": "_sex",
          "type": "uint256"
        },
        {
          "name": "_birthday",
          "type": "uint256"
        },
        {
          "name": "_luckynumber",
          "type": "uint256"
        },
        {
          "name": "_type",
          "type": "uint256"
        }
      ],
      "name": "predictForothers",
      "outputs": [],
      "payable": false,
      "stateMutability": "nonpayable",
      "type": "function"
    },
    {
      "constant": false,
      "inputs": [
        {
          "name": "_type",
          "type": "uint256"
        }
      ],
      "name": "predict",
      "outputs": [],
      "payable": false,
      "stateMutability": "nonpayable",
      "type": "function"
    },
    {
      "constant": false,
      "inputs": [
        {
          "name": "_name",
          "type": "string"
        },
        {
          "name": "_sex",
          "type": "uint256"
        },
        {
          "name": "_birthday",
          "type": "uint256"
        },
        {
          "name": "_luckynumber",
          "type": "uint256"
        },
        {
          "name": "_type",
          "type": "uint256"
        }
      ],
      "name": "predictFirst",
      "outputs": [],
      "payable": false,
      "stateMutability": "nonpayable",
      "type": "function"
    },
    {
      "constant": false,
      "inputs": [
        {
          "name": "_money",
          "type": "uint256"
        }
      ],
      "name": "donate",
      "outputs": [],
      "payable": true,
      "stateMutability": "payable",
      "type": "function"
    },
    {
      "constant": false,
      "inputs": [],
      "name": "help",
      "outputs": [],
      "payable": true,
      "stateMutability": "payable",
      "type": "function"
    },
    {
      "constant": false,
      "inputs": [
        {
          "name": "_target",
          "type": "address"
        },
        {
          "name": "_money",
          "type": "uint256"
        }
      ],
      "name": "tansferTo",
      "outputs": [],
      "payable": true,
      "stateMutability": "payable",
      "type": "function"
    },
    {
      "constant": true,
      "inputs": [
        {
          "name": "_type",
          "type": "uint256"
        },
        {
          "name": "_id",
          "type": "uint256"
        }
      ],
      "name": "getRecord",
      "outputs": [
        {
          "name": "",
          "type": "uint256"
        },
        {
          "name": "",
          "type": "uint256"
        },
        {
          "name": "",
          "type": "address"
        }
      ],
      "payable": false,
      "stateMutability": "view",
      "type": "function"
    },
    {
      "constant": true,
      "inputs": [],
      "name": "getUser",
      "outputs": [
        {
          "name": "",
          "type": "uint256"
        },
        {
          "name": "",
          "type": "string"
        },
        {
          "name": "",
          "type": "uint256"
        },
        {
          "name": "",
          "type": "uint256"
        },
        {
          "name": "",
          "type": "uint256"
        },
        {
          "name": "",
          "type": "uint256[]"
        },
        {
          "name": "",
          "type": "uint256[]"
        },
        {
          "name": "",
          "type": "uint256[]"
        }
      ],
      "payable": false,
      "stateMutability": "view",
      "type": "function"
    },
    {
      "constant": true,
      "inputs": [],
      "name": "getUserkey",
      "outputs": [
        {
          "name": "",
          "type": "uint256"
        }
      ],
      "payable": false,
      "stateMutability": "view",
      "type": "function"
    },
    {
      "constant": true,
      "inputs": [],
      "name": "getLovekey",
      "outputs": [
        {
          "name": "",
          "type": "uint256"
        }
      ],
      "payable": false,
      "stateMutability": "view",
      "type": "function"
    },
    {
      "constant": true,
      "inputs": [],
      "name": "getCareerkey",
      "outputs": [
        {
          "name": "",
          "type": "uint256"
        }
      ],
      "payable": false,
      "stateMutability": "view",
      "type": "function"
    },
    {
      "constant": true,
      "inputs": [],
      "name": "getMoneykey",
      "outputs": [
        {
          "name": "",
          "type": "uint256"
        }
      ],
      "payable": false,
      "stateMutability": "view",
      "type": "function"
    },
    {
      "constant": true,
      "inputs": [],
      "name": "getDonate",
      "outputs": [
        {
          "name": "",
          "type": "uint256"
        }
      ],
      "payable": false,
      "stateMutability": "view",
      "type": "function"
    },
    {
      "constant": true,
      "inputs": [],
      "name": "getHelp",
      "outputs": [
        {
          "name": "",
          "type": "uint256"
        }
      ],
      "payable": false,
      "stateMutability": "view",
      "type": "function"
    },
    {
      "constant": true,
      "inputs": [],
      "name": "getBalance",
      "outputs": [
        {
          "name": "",
          "type": "uint256"
        }
      ],
      "payable": false,
      "stateMutability": "view",
      "type": "function"
    }
  ],
  "bytecode": "0x608060405260016000556001805560016002556001600355600060045560006005556000600655620f4240600755600560085534801561003e57600080fd5b5033600960006101000a81548173ffffffffffffffffffffffffffffffffffffffff021916908373ffffffffffffffffffffffffffffffffffffffff160217905550611f8c8061008f6000396000f3006080604052600436106100f1576000357c0100000000000000000000000000000000000000000000000000000000900463ffffffff168063108e7c73146100f657806312065fe0146101215780631a9adea21461014c57806320fba1621461017757806333406502146101815780634732b8fa1461020657806352ef348a1461023157806360b46d111461025e5780636693117d146102a9578063832880e7146102d457806383a07b6d146104585780639ec3c8e9146104e9578063c156254714610514578063e3ec291a14610543578063f0510aa91461056e578063f14faf6f14610599578063fe4fbcc9146105b9575b600080fd5b34801561010257600080fd5b5061010b6105f9565b6040518082815260200191505060405180910390f35b34801561012d57600080fd5b50610136610603565b6040518082815260200191505060405180910390f35b34801561015857600080fd5b50610161610669565b6040518082815260200191505060405180910390f35b61017f610672565b005b34801561018d57600080fd5b506101b660048036038101908080359060200190929190803590602001909291905050506106de565b604051808481526020018381526020018273ffffffffffffffffffffffffffffffffffffffff1673ffffffffffffffffffffffffffffffffffffffff168152602001935050505060405180910390f35b34801561021257600080fd5b5061021b6108d1565b6040518082815260200191505060405180910390f35b34801561023d57600080fd5b5061025c600480360381019080803590602001909291905050506108db565b005b34801561026a57600080fd5b506102a760048036038101908080359060200190929190803590602001909291908035906020019092919080359060200190929190505050610ab5565b005b3480156102b557600080fd5b506102be610c2e565b6040518082815260200191505060405180910390f35b3480156102e057600080fd5b506102e9610c34565b604051808981526020018060200188815260200187815260200186815260200180602001806020018060200185810385528c818151815260200191508051906020019080838360005b8381101561034d578082015181840152602081019050610332565b50505050905090810190601f16801561037a5780820380516001836020036101000a031916815260200191505b50858103845288818151815260200191508051906020019060200280838360005b838110156103b657808201518184015260208101905061039b565b50505050905001858103835287818151815260200191508051906020019060200280838360005b838110156103f85780820151818401526020810190506103dd565b50505050905001858103825286818151815260200191508051906020019060200280838360005b8381101561043a57808201518184015260208101905061041f565b505050509050019c5050505050505050505050505060405180910390f35b34801561046457600080fd5b506104e7600480360381019080803590602001908201803590602001908080601f016020809104026020016040519081016040528093929190818152602001838380828437820191505050505050919291929080359060200190929190803590602001909291908035906020019092919080359060200190929190505050610eb9565b005b3480156104f557600080fd5b506104fe611055565b6040518082815260200191505060405180910390f35b34801561052057600080fd5b5061052961105f565b604051808215151515815260200191505060405180910390f35b34801561054f57600080fd5b506105586112a8565b6040518082815260200191505060405180910390f35b34801561057a57600080fd5b506105836112b2565b6040518082815260200191505060405180910390f35b6105b7600480360381019080803590602001909291905050506112bc565b005b6105f7600480360381019080803573ffffffffffffffffffffffffffffffffffffffff1690602001909291908035906020019092919050505061131a565b005b6000600154905090565b6000600960009054906101000a900473ffffffffffffffffffffffffffffffffffffffff1673ffffffffffffffffffffffffffffffffffffffff163373ffffffffffffffffffffffffffffffffffffffff1614151561066157600080fd5b600454905090565b60008054905090565b60075460085402341015151561068757600080fd5b61068f61140b565b6106983461141f565b7f835adf73b42c5e4038fd0617ef13372ffde5f56838e1adc911dbb6a53fdcdd66600754348115156106c657fe5b046040518082815260200191505060405180910390a1565b60008060006106eb611cc5565b600186141561078457600b60008681526020019081526020016000206060604051908101604052908160008201548152602001600182015481526020016002820160009054906101000a900473ffffffffffffffffffffffffffffffffffffffff1673ffffffffffffffffffffffffffffffffffffffff1673ffffffffffffffffffffffffffffffffffffffff168152505090506108b4565b600286141561081d57600c60008681526020019081526020016000206060604051908101604052908160008201548152602001600182015481526020016002820160009054906101000a900473ffffffffffffffffffffffffffffffffffffffff1673ffffffffffffffffffffffffffffffffffffffff1673ffffffffffffffffffffffffffffffffffffffff168152505090506108b3565b60038614156108b257600d60008681526020019081526020016000206060604051908101604052908160008201548152602001600182015481526020016002820160009054906101000a900473ffffffffffffffffffffffffffffffffffffffff1673ffffffffffffffffffffffffffffffffffffffff1673ffffffffffffffffffffffffffffffffffffffff168152505090505b5b5b806000015181602001518260400151935093509350509250925092565b6000600554905090565b6000806108e661105f565b15156108f157600080fd5b600a60003373ffffffffffffffffffffffffffffffffffffffff1673ffffffffffffffffffffffffffffffffffffffff16815260200190815260200160002091506001606460028460020154856003015486600401544233604051602001808681526020018581526020018481526020018381526020018273ffffffffffffffffffffffffffffffffffffffff1673ffffffffffffffffffffffffffffffffffffffff166c01000000000000000000000000028152601401955050505050506040516020818303038152906040526040518082805190602001908083835b6020831015156109f457805182526020820191506020810190506020830392506109cf565b6001836020036101000a0380198251168184511680821785525050505050509050019150506020604051808303816000865af1158015610a38573d6000803e3d6000fd5b5050506040513d6020811015610a4d57600080fd5b810190808051906020019092919050505060019004811515610a6b57fe5b06019050610a79818461142d565b7fbf3374915d415c396d0673f3796341eef197bbfb6b37534d947fb801e35c34bb816040518082815260200191505060405180910390a1505050565b6000600160646002878787874233604051602001808781526020018681526020018581526020018481526020018381526020018273ffffffffffffffffffffffffffffffffffffffff1673ffffffffffffffffffffffffffffffffffffffff166c0100000000000000000000000002815260140196505050505050506040516020818303038152906040526040518082805190602001908083835b602083101515610b755780518252602082019150602081019050602083039250610b50565b6001836020036101000a0380198251168184511680821785525050505050509050019150506020604051808303816000865af1158015610bb9573d6000803e3d6000fd5b5050506040513d6020811015610bce57600080fd5b810190808051906020019092919050505060019004811515610bec57fe5b060190507fbf3374915d415c396d0673f3796341eef197bbfb6b37534d947fb801e35c34bb816040518082815260200191505060405180910390a15050505050565b60075481565b6000606060008060006060806060610c4a611cfd565b600a60003373ffffffffffffffffffffffffffffffffffffffff1673ffffffffffffffffffffffffffffffffffffffff168152602001908152602001600020610100604051908101604052908160008201548152602001600182018054600181600116156101000203166002900480601f016020809104026020016040519081016040528092919081815260200182805460018160011615610100020316600290048015610d395780601f10610d0e57610100808354040283529160200191610d39565b820191906000526020600020905b815481529060010190602001808311610d1c57829003601f168201915b5050505050815260200160028201548152602001600382015481526020016004820154815260200160058201805480602002602001604051908101604052809291908181526020018280548015610daf57602002820191906000526020600020905b815481526020019060010190808311610d9b575b5050505050815260200160068201805480602002602001604051908101604052809291908181526020018280548015610e0757602002820191906000526020600020905b815481526020019060010190808311610df3575b5050505050815260200160078201805480602002602001604051908101604052809291908181526020018280548015610e5f57602002820191906000526020600020905b815481526020019060010190808311610e4b575b5050505050815250509050806000015181602001518260400151836060015184608001518560a001518660c001518760e0015186965082925081915080905098509850985098509850985098509850509091929394959697565b6000610ec361105f565b151515610ecf57600080fd5b610edb8686868661146a565b6001606460028787874233604051602001808681526020018581526020018481526020018381526020018273ffffffffffffffffffffffffffffffffffffffff1673ffffffffffffffffffffffffffffffffffffffff166c01000000000000000000000000028152601401955050505050506040516020818303038152906040526040518082805190602001908083835b602083101515610f915780518252602082019150602081019050602083039250610f6c565b6001836020036101000a0380198251168184511680821785525050505050509050019150506020604051808303816000865af1158015610fd5573d6000803e3d6000fd5b5050506040513d6020811015610fea57600080fd5b81019080805190602001909291905050506001900481151561100857fe5b06019050611016818361142d565b7fbf3374915d415c396d0673f3796341eef197bbfb6b37534d947fb801e35c34bb816040518082815260200191505060405180910390a1505050505050565b6000600654905090565b6000611069611cfd565b600a60003373ffffffffffffffffffffffffffffffffffffffff1673ffffffffffffffffffffffffffffffffffffffff168152602001908152602001600020610100604051908101604052908160008201548152602001600182018054600181600116156101000203166002900480601f0160208091040260200160405190810160405280929190818152602001828054600181600116156101000203166002900480156111585780601f1061112d57610100808354040283529160200191611158565b820191906000526020600020905b81548152906001019060200180831161113b57829003601f168201915b50505050508152602001600282015481526020016003820154815260200160048201548152602001600582018054806020026020016040519081016040528092919081815260200182805480156111ce57602002820191906000526020600020905b8154815260200190600101908083116111ba575b505050505081526020016006820180548060200260200160405190810160405280929190818152602001828054801561122657602002820191906000526020600020905b815481526020019060010190808311611212575b505050505081526020016007820180548060200260200160405190810160405280929190818152602001828054801561127e57602002820191906000526020600020905b81548152602001906001019080831161126a575b505050505081525050905060008160000151111561129f57600191506112a4565b600091505b5090565b6000600254905090565b6000600354905090565b600754810234101515156112cf57600080fd5b6112d76115e4565b6112e03461141f565b7f177106ef8fb54cbe1cfdd361802a4d15b05cc6bf11be4c1448dfa6f4504f817b816040518082815260200191505060405180910390a150565b600960009054906101000a900473ffffffffffffffffffffffffffffffffffffffff1673ffffffffffffffffffffffffffffffffffffffff163373ffffffffffffffffffffffffffffffffffffffff1614151561137657600080fd5b8173ffffffffffffffffffffffffffffffffffffffff166108fc60075483029081150290604051600060405180830381858888f193505050501580156113c0573d6000803e3d6000fd5b506007548102600454036004819055507f2df64750ce2bd8827c692897aabfb4c8705f7c750f10c215787d09329ac615b5816040518082815260200191505060405180910390a15050565b600560008154809291906001019190505550565b806004540160048190555050565b60018114156114405761143f826115f8565b5b60028114156114535761145282611822565b5b60038114156114665761146582611a4c565b5b5050565b60006060611476611cfd565b61147e610669565b92506101006040519081016040528084815260200188815260200187815260200186815260200185815260200183815260200183815260200183815250905080600a60003373ffffffffffffffffffffffffffffffffffffffff1673ffffffffffffffffffffffffffffffffffffffff168152602001908152602001600020600082015181600001556020820151816001019080519060200190611523929190611d43565b5060408201518160020155606082015181600301556080820151816004015560a082015181600501908051906020019061155e929190611dc3565b5060c082015181600601908051906020019061157b929190611dc3565b5060e0820151816007019080519060200190611598929190611dc3565b509050506115a4611c76565b7f4762b05eeefbf457fe750c0ec35c1235c95b22769cfbd4827b87d1ecfab14cb4836040518082815260200191505060405180910390a150505050505050565b600660008154809291906001019190505550565b6000611602611cc5565b600080600a60003373ffffffffffffffffffffffffffffffffffffffff1673ffffffffffffffffffffffffffffffffffffffff16815260200190815260200160002093506060604051908101604052808381526020018681526020013373ffffffffffffffffffffffffffffffffffffffff1681525092506116826105f9565b915082600b6000848152602001908152602001600020600082015181600001556020820151816001015560408201518160020160006101000a81548173ffffffffffffffffffffffffffffffffffffffff021916908373ffffffffffffffffffffffffffffffffffffffff1602179055509050506116fe611c89565b836005019050808290806001815401808255809150509060018203906000526020600020016000909192909190915055508084600501908054611742929190611e10565b5083600a60003373ffffffffffffffffffffffffffffffffffffffff1673ffffffffffffffffffffffffffffffffffffffff16815260200190815260200160002060008201548160000155600182018160010190805460018160011615610100020316600290046117b4929190611e62565b5060028201548160020155600382015481600301556004820154816004015560058201816005019080546117e9929190611ee9565b506006820181600601908054611800929190611ee9565b506007820181600701908054611817929190611ee9565b509050505050505050565b600061182c611cc5565b600080600a60003373ffffffffffffffffffffffffffffffffffffffff1673ffffffffffffffffffffffffffffffffffffffff16815260200190815260200160002093506060604051908101604052808381526020018681526020013373ffffffffffffffffffffffffffffffffffffffff1681525092506118ac6112a8565b915082600c6000848152602001908152602001600020600082015181600001556020820151816001015560408201518160020160006101000a81548173ffffffffffffffffffffffffffffffffffffffff021916908373ffffffffffffffffffffffffffffffffffffffff160217905550905050611928611c9d565b83600601905080829080600181540180825580915050906001820390600052602060002001600090919290919091505550808460060190805461196c929190611e10565b5083600a60003373ffffffffffffffffffffffffffffffffffffffff1673ffffffffffffffffffffffffffffffffffffffff16815260200190815260200160002060008201548160000155600182018160010190805460018160011615610100020316600290046119de929190611e62565b506002820154816002015560038201548160030155600482015481600401556005820181600501908054611a13929190611ee9565b506006820181600601908054611a2a929190611ee9565b506007820181600701908054611a41929190611ee9565b509050505050505050565b6000611a56611cc5565b600080600a60003373ffffffffffffffffffffffffffffffffffffffff1673ffffffffffffffffffffffffffffffffffffffff16815260200190815260200160002093506060604051908101604052808381526020018681526020013373ffffffffffffffffffffffffffffffffffffffff168152509250611ad66112b2565b915082600d6000848152602001908152602001600020600082015181600001556020820151816001015560408201518160020160006101000a81548173ffffffffffffffffffffffffffffffffffffffff021916908373ffffffffffffffffffffffffffffffffffffffff160217905550905050611b52611cb1565b836007019050808290806001815401808255809150509060018203906000526020600020016000909192909190915055508084600701908054611b96929190611e10565b5083600a60003373ffffffffffffffffffffffffffffffffffffffff1673ffffffffffffffffffffffffffffffffffffffff1681526020019081526020016000206000820154816000015560018201816001019080546001816001161561010002031660029004611c08929190611e62565b506002820154816002015560038201548160030155600482015481600401556005820181600501908054611c3d929190611ee9565b506006820181600601908054611c54929190611ee9565b506007820181600701908054611c6b929190611ee9565b509050505050505050565b6000808154809291906001019190505550565b600160008154809291906001019190505550565b600260008154809291906001019190505550565b600360008154809291906001019190505550565b6060604051908101604052806000815260200160008152602001600073ffffffffffffffffffffffffffffffffffffffff1681525090565b6101006040519081016040528060008152602001606081526020016000815260200160008152602001600081526020016060815260200160608152602001606081525090565b828054600181600116156101000203166002900490600052602060002090601f016020900481019282601f10611d8457805160ff1916838001178555611db2565b82800160010185558215611db2579182015b82811115611db1578251825591602001919060010190611d96565b5b509050611dbf9190611f3b565b5090565b828054828255906000526020600020908101928215611dff579160200282015b82811115611dfe578251825591602001919060010190611de3565b5b509050611e0c9190611f3b565b5090565b828054828255906000526020600020908101928215611e515760005260206000209182015b82811115611e50578254825591600101919060010190611e35565b5b509050611e5e9190611f3b565b5090565b828054600181600116156101000203166002900490600052602060002090601f016020900481019282601f10611e9b5780548555611ed8565b82800160010185558215611ed857600052602060002091601f016020900482015b82811115611ed7578254825591600101919060010190611ebc565b5b509050611ee59190611f3b565b5090565b828054828255906000526020600020908101928215611f2a5760005260206000209182015b82811115611f29578254825591600101919060010190611f0e565b5b509050611f379190611f3b565b5090565b611f5d91905b80821115611f59576000816000905550600101611f41565b5090565b905600a165627a7a72305820af6e2888423630a8b79305d4fe2da766fa4d9712623e383814ee826aef5a714b0029",
  "source": "pragma solidity ^0.4.18;\n\n\ncontract Predict {\n\n    struct User {\n        uint256 userid;\n        string name;\n        uint256 sex;\n        uint256 birthday;\n        uint256 luckynumber;\n        uint256[] type_love;\n        uint256[] type_career;\n        uint256[] type_money;\n    }\n\n    struct Record {\n        uint256 id;\n        uint256 score;\n        address owner;\n    }\n\n    uint256 private userkey = 1;\n    uint256 private lovekey = 1;\n    uint256 private careerkey = 1;\n    uint256 private moneykey = 1;\n    uint256 private balance = 0;\n    uint256 private count_help = 0;\n    uint256 private count_donate = 0;\n    uint256 public tron = 1000000;\n    //uint256 tron = 1000000000000000000; \n    uint256 private help_fee = 5;\n    address private owneraddress;\n\n    mapping (address => User) private users;\n    mapping (uint256 => Record) private record_love;\n    mapping (uint256 => Record) private record_career;\n    mapping (uint256 => Record) private record_money;\n\n    event createUserSuccess(uint256 userid);\n    event predictSuccess(uint256 score);\n    event ErrorInput(uint256 typeid);\n    event DonateSuccess(uint256 money);\n    event HelpSuccess(uint256 money);\n    event TransferSuccess(uint256 money);\n\n    constructor () public {\n        owneraddress = msg.sender;        \n    }\n\n    modifier onlyOwner () {\n        require(msg.sender == owneraddress);\n        _;\n    }\n\n    function checkUser() public view returns(bool) {\n        User memory user = users[msg.sender];\n        if(user.userid > 0){\n            return true;\n        }\n        return false;\n    }\n\n    function createUser (string _name,uint256 _sex, uint256 _birthday, uint256 _luckynumber) private {\n        uint256 _userid = getUserkey();\n        uint256[] memory type_init;\n        User memory user = User({userid:_userid, name:_name, sex:_sex, birthday:_birthday, luckynumber:_luckynumber,type_love:type_init, type_career:type_init, type_money:type_init});\n        users[msg.sender] = user;\n        updateUserkey();\n        emit createUserSuccess(_userid);\n    }\n\n    function updateTypelove (uint256 _score) private {\n        User storage user = users[msg.sender];\n        Record memory record = Record({id:recordid,score:_score,owner:msg.sender});\n        uint256 recordid = getLovekey();\n        record_love[recordid] = record;\n        updateLovekey();\n        uint256[] storage type_init = user.type_love;\n        type_init.push(recordid);\n        user.type_love = type_init;\n        users[msg.sender] = user;\n    }\n\n    function updateTypecareer (uint256 _score) private {\n        User storage user = users[msg.sender];\n        Record memory record = Record({id:recordid,score:_score,owner:msg.sender});\n        uint256 recordid = getCareerkey();\n        record_career[recordid] = record;\n        updateCareerkey();\n        uint256[] storage type_init = user.type_career;\n        type_init.push(recordid);\n        user.type_career = type_init;\n        users[msg.sender] = user;\n    }\n\n    function updateTypemoney (uint256 _score) private {\n        User storage user = users[msg.sender];\n        Record memory record = Record({id:recordid,score:_score,owner:msg.sender});\n        uint256 recordid = getMoneykey();\n        record_money[recordid] = record;\n        updateMoneykey();\n        uint256[] storage type_init = user.type_money;\n        type_init.push(recordid);\n        user.type_money = type_init;\n        users[msg.sender] = user;\n    }\n\n    function updateType (uint256 _score, uint256 _type) private {\n        if(_type == 1) {\n            updateTypelove(_score);\n        } \n        if (_type == 2) {\n            updateTypecareer(_score);\n        } \n        if (_type == 3) {\n            updateTypemoney(_score);\n        } \n    }\n\n    function predictForothers (uint256 _sex, uint256 _birthday, uint256 _luckynumber, uint256 _type) public {\n        uint256 score = uint256(sha256(abi.encodePacked(_sex, _birthday, _luckynumber, _type, now, msg.sender))) % 100 + 1;\n        emit predictSuccess(score);\n    }\n\n    function predict (uint256 _type) public {\n        require(checkUser());\n        User storage user = users[msg.sender];\n        uint256 score = uint256(sha256(abi.encodePacked(user.sex, user.birthday, user.luckynumber, now, msg.sender))) % 100 + 1;\n        updateType(score, _type);\n        emit predictSuccess(score);\n    }\n\n    function predictFirst (string _name, uint256 _sex, uint256 _birthday, uint256 _luckynumber, uint256 _type) public {\n        require(!checkUser());\n        createUser(_name, _sex, _birthday, _luckynumber);\n        uint256 score = uint256(sha256(abi.encodePacked(_sex, _birthday, _luckynumber, now, msg.sender))) % 100 + 1;\n        updateType(score,_type);\n        emit predictSuccess(score);\n    }\n\n    function donate (uint256 _money) public payable {\n        require(msg.value >= _money * tron);\n        updateDonate();\n        updateBalance(msg.value);\n        emit DonateSuccess(_money);\n    }\n\n    function help () public payable {\n        require(msg.value >= help_fee * tron);\n        updateHelp();\n        updateBalance(msg.value);\n        emit HelpSuccess(msg.value / tron);\n    }\n\n    function tansferTo (address _target , uint256 _money) public payable onlyOwner {\n        _target.transfer(_money * tron);\n        balance = balance - _money * tron;\n        emit TransferSuccess(_money);\n    }\n\n    function getRecord (uint256 _type, uint256 _id) public view returns (uint256, uint256, address) {\n        Record memory record;\n        if(_type == 1){\n            record = record_love[_id];\n        } else if (_type == 2) {\n            record = record_career[_id];\n        } else if (_type == 3) {\n            record = record_money[_id];\n        } \n        return(record.id, record.score, record.owner);\n    }\n\n    function getUser () public view returns(uint256, string, uint256, uint256, uint256, uint256[], uint256[], uint256[]) {\n        User memory user = users[msg.sender];\n        return(user.userid, user.name, user.sex, user.birthday, user.luckynumber, user.type_love, user.type_career, user.type_money);\n    }\n\n    function getUserkey () public view returns(uint256) {\n        return userkey;\n    }\n\n    function updateUserkey () private {\n        userkey++;\n    }\n\n    function getLovekey () public view returns(uint256) {\n        return lovekey;\n    }\n\n    function updateLovekey () private {\n        lovekey++;\n    }\n\n    function getCareerkey () public view returns(uint256) {\n        return careerkey;\n    }\n\n    function updateCareerkey () private {\n        careerkey++;\n    }\n\n    function getMoneykey () public view returns(uint256) {\n        return moneykey;\n    }\n\n    function updateMoneykey () private {\n        moneykey++;\n    }\n\n    function getDonate () public view returns(uint256) {\n        return count_donate;\n    }\n\n    function updateDonate () private {\n        count_donate++;\n    }\n\n    function getHelp () public view returns(uint256) {\n        return count_help;\n    }\n\n    function updateHelp () private {\n        count_help++;\n    }\n\n    function getBalance () public view onlyOwner returns(uint256) {\n        return balance;\n    }\n\n    function updateBalance (uint256 _money) private {\n        balance = balance + _money;\n    }\n}",
  "sourcePath": "/Users/wkorz/work/tron/Predict/newbox/contracts/Predict.sol",
  "compiler": {
    "name": "solc",
    "version": "0.4.24-develop.2018.8.28+commit.3ba0cdec.mod.Emscripten.clang"
  },
  "schemaVersion": "2.0.1",
  "updatedAt": "2018-12-25T08:13:04.937Z"
}